:020000040800F2
:10000000D808002081020008813800082D2C000843
:100010007D380008A1060008DD5900080000000036
:1000200000000000000000000000000091580008DF
:10003000A506000800000000853800089558000853
:100040009B0200089B0200089B0200089B0200081C
:100050009B0200089B0200089B0200089B0200080C
:100060009B0200089B0200089B0200089B020008FC
:100070009B0200089B0200089B0200089B020008EC
:100080009B020008000000009B0200089B02000881
:100090009B0200089B0200089B0200089B020008CC
:1000A0009B020008B9580008AD5800089B020008E0
:1000B000C55800089B0200089B0200089B0200082C
:1000C0009B0200089B0200089B0200089B0200089C
:1000D0009B0200089B0200089B0200089B0200088C
:1000E0009B0200089B0200089B0200089B0200087C
:1000F0009B0200089B0200089B0200080000000011
:10010000000000009B020008000000009B020008A5
:100110009B020008000000009B0200089B020008F0
:100120009B0200089B0200089B0200089B0200083B
:100130009B02000800000000000000009B02000875
:100140009B0200089B020008000000000000000065
:10015000000000000000000000000000000000009F
:100160000000000000000000000000009B020008EA
:100170009B020008000000000000000000000000DA
:10018000000000009B0200080000000000000000CA
:10019000000000000000000000000000000000005F
:1001A00000000000000000009B0200089B02000805
:1001B0009B0200089B0200089B0200080000000050
:1001C000000000009B02000800000000000000008A
:1001D0009B0200089B02000800F002F800F041F8C2
:1001E0000AA090E8000C82448344AAF10107DA4592
:1001F00001D100F036F8AFF2090EBAE80F0013F0A3
:10020000010F18BFFB1A43F001031847E476000002
:1002100004770000103A24BF78C878C1FAD8520792
:1002200024BF30C830C144BF04680C607047000070
:100230000023002400250026103A28BF78C1FBD8EF
:10024000520728BF30C148BF0B607047642900F0D7
:100250007380002070471FB506F0DFF91FBD10B591
:1002600010BD00F0E2F91146FFF7F5FF05F0ACFF15
:1002700000F000FA03B4FFF7F2FF03BC00F008FA45
:100280000948804709480047FEE7FEE7FEE7FEE72A
:10029000FEE7FEE7FEE7FEE7FEE7FEE70448054966
:1002A000054A064B7047000099580008D90100081C
:1002B000D8020020D8080020D8040020D80400204C
:1002C0000FB41CB5074B06AA7B44694600900598FD
:1002D00000F093F90020694600F0A2F91CBC5DF81B
:1002E00014FB00005503000070B5044685690068E2
:1002F000C10601D5302600E02026C00707D070BD1A
:10030000D4E9012130469047206A401C20626D1ECE
:10031000F6D570BD70B5044685690078C00707D171
:1003200070BDD4E9012120209047206A401C206242
:100330006D1EF6D570BD00002DE9F0410646002483
:1003400010687529314616A510D0AFF3008000283B
:1003500002DA404213A507E031688A0701D512A5E9
:1003600002E0490704D511A5012401E0AFF30080A4
:1003700000210A2206F1240709E0B0FBF2FCB0FBE1
:10038000F2F302FB1C00303078541846491C002858
:10039000F3D123462A463046BDE8F04100F0CEB8FE
:1003A000000000002D0000002B00000020000000D5
:1003B0002DE9F05F894604464FF0000ADFF824B1CA
:1003C000FB44C0F820A02046E168884700287DD083
:1003D000252806D0D4E901219047206A401C2062DC
:1003E000F1E700255F462046E16888472028064659
:1003F00007DB312E05D2B81910F8200C08B10543DF
:10040000F1E7A80701D525F00405C4F81CA00027D2
:10041000C4F818A02A2E09D0304605F056FF38B38C
:1004200004EB8708303EC8F8186019E059F8041B3F
:10043000204604EB87029161E1688847012F064658
:1004400018D1E069002820DA25F020051DE0D8F851
:10045000180000EB800006EB40003038C8F81800A8
:100460002046E1688847064605F02FFF0028EED1B8
:10047000012F0AD02E2E08D12046E16888477F1C24
:100480000646022F45F02005C4DBA069002803DAE8
:10049000404245F00105A061E80701D025F01005B4
:1004A000A6B1A6F14100192802D8203645F400650E
:1004B0004A463146204625604D46FFF7C7FE60B1EB
:1004C000012807D0ED1D25F0070000E007E000F14E
:1004D000080978E705F1040975E730467AE7206AEC
:1004E000BDE8F09F7A6200004FF0000200B51346AD
:1004F00094469646203922BFA0E80C50A0E80C5044
:10050000B1F12001BFF4F7AF090728BFA0E80C50F4
:1005100048BF0CC05DF804EB890028BF40F8042BED
:1005200008BF704748BF20F8022B11F0804F18BF5A
:1005300000F8012B70477047704770472DE9F0476E
:100540000D4699469246044600F124080168880643
:1005500004D5E06921F01001216000E00120A842EB
:1005600001DD471B00E00027A1697A1902EB0900B1
:10057000081AA0612078C00602D42046FFF7B4FE16
:10058000002608E0D4E901211AF806009047206A05
:10059000401C761C20624E45F4DB2078C0060AD54C
:1005A0002046FFF7A1FE06E0D4E901213020904764
:1005B000206A401C2062381EA7F10107F4DC07E026
:1005C000D4E9012118F805009047206A401C2062F8
:1005D000281EA5F10105F3DC2046FFF79BFE2078DD
:1005E000000602D50220BDE8F0870120FBE70000ED
:1005F00001694A1C02610878704700B58FB0CDE9E7
:1006000001310021059105497944CDE903101146D6
:100610006846FFF7CDFE0FB000BD0000E5FFFFFF0D
:100620000A6802F8010B0A607047754600F02CF862
:10063000AE4605006946534620F00700854618B0CF
:1006400020B5FFF72BFEBDE820404FF000064FF02D
:1006500000074FF000084FF0000BAC46ACE8C009B3
:10066000ACE8C009ACE8C009ACE8C00921F007015A
:100670008D46704710B50446AFF300802046BDE8B4
:100680001040FFF7F7BD0000004870471800002039
:1006900001491820ABBEFEE72600020070470000AB
:1006A000FEE7000070470000EFF3108072B600BF55
:1006B000FEE7000070B582B090F85820012A03D1FF
:1006C0000221084602B070BD002201920092026829
:1006D000B2F1A04F30D140F208324FF6006C4FF625
:1006E0000055C5F20002CFF6FF7CCFF6FF7552F839
:1006F0000C40535923435B071ED4D1F800E0136824
:10070000BEF1000F23F4604422D04B6890F83860AB
:1007100043EA463323431360535952F80C60334382
:10072000DB0723D1136840F61F768968B34319436A
:1007300041EA0E0117E000BFC16D41F02001C16523
:100740000121002280F85820084602B070BD00BF89
:100750001460515952F80C301943C90708D1116877
:1007600040F61F73994311600021EAE70021E8E792
:100770000021E6E7F0B581B00022009290F8582001
:10078000012A03D10221084601B0F0BD0123076808
:1007900080F85830BB685B0736D4D1E900531F2678
:1007A000C3F3012407EB8404226B03F01F039E4074
:1007B000B243C5F3846606FA03F31A432263BA68A8
:1007C000BB6802F0040203F00803D21840F0BD80B9
:1007D0000A6807F114030426C2F34064D1F808E064
:1007E00006EAD25C53F82450C2F304540722A24014
:1007F000BEF1004F25EA02050CD143F80C501A68EF
:1008000042F000430EE000BFC16D41F02001C16520
:1008100001217EE10EFA04F22A4343F80C201A6803
:1008200022F000437B61D1E90434FD68042B5FD1E1
:100830003A6E3A6E0B68C2F3846293FAA3F6C3F37E
:10084000846C6FF3DF43B6FA86F5002B2C464FF627
:10085000FF7E08BF6446A242C0F2070E0CD13A6E7A
:1008600022F000423A660A6802EA0E03C2F3846C80
:1008700092FAA2F2B2FA82F57A6E7A6E002BC2F385
:1008800084622C4608BF6446A2420CD17A6E22F0E4
:1008900000427A660A6802EA0E03C2F3846C92FA96
:1008A000A2F2B2FA82F5BA6EBA6E002BC2F384627B
:1008B0002C4608BF6446A2420CD1BA6E22F0004218
:1008C000BA660A6802EA0E03C2F3846C92FAA2F2D4
:1008D000B2FA82F5FA6EFA6E002BC2F3846208BF98
:1008E0006546AA4231D1FA6E22F00042FA662CE047
:1008F000062202EA95020E6807F1600504FA02FC7E
:1009000055F823404FF20002C0F2FF3206F0F846DD
:10091000224046EA0C06324342F0004245F82320CA
:100920000A698B6955F8226026F08076334345F8D2
:1009300022300A690B7F55F82260012B26F00076E1
:1009400008BF06F1007645F82260BA68D2074CD19C
:100950000C68CA6800262346C4F27F06B2426FF3D1
:10096000DF4319D1D7F8B02042EA0302C7F8B0201C
:10097000C3B194FAA4F2B2FA82F2013202F01E0379
:10098000092B02F01F0316D801229A4003EB430300
:1009900042EA03531BE000BFD7F8B0209A43C7F8E0
:1009A000B02022E0012202EB946202F01E030A2B27
:1009B00002F01F03E8D3012200269A4003EB430311
:1009C000CFF6206606EB03531A4342F00073C3F3DD
:1009D000406607EB86068A687569C3F304530724EB
:1009E0009C40A5439A402A43726109680022C8F2DC
:1009F0000802114254D040F2083CC5F2000CDCF869
:100A000000300022CCF22132914203F0E07404D095
:100A10001022C9F2C002914244D119024FF00001E4
:100A200077D4B7F1A04F74D1DCF8001042F66352CE
:100A300021F0E071214341F40001CCF8001040F2B4
:100A40000C01C2F200010968C0F23E528909A1FB03
:100A50000212910901EB41010C2202EB810100918C
:100A6000009900293CD000BF0099013900910099FC
:100A7000002947D00099013900910099002943D0FD
:100A8000009901390091009900293FD0009901395E
:100A90000091009900294FF00001E5D139E000BF35
:100AA000002136E00022CCF25272914208BF13F0CE
:100AB000807217D00022CCF6843291424FF00001B0
:100AC00008BF13F4800224D1ACF50272974220D003
:100AD000DCF8001021F0E071214341F480010CE0CA
:100AE000002116E0ACF502718F4211D0DCF8001045
:100AF00021F0E071214341F08071CCF80010002119
:100B000007E000BF002104E0002102E0002100E036
:100B10000021002280F85820084601B0F0BD0000F6
:100B20000068006C70470000B0B582B00446002039
:100B300001904CB1E06D58B121688868800012D4F2
:100B40008868C00019D54CE0012002B0B0BD00BFDC
:100B5000204600F00DF90020206684F85800216836
:100B600088688000ECD588684FF6C072C5F6FF72C1
:100B7000104088608868C00033D44FF6C07288681F
:100B8000C5F6FF7202F18052104000F1805088607B
:100B900040F20C00C2F20000006842F66352800985
:100BA000C0F23E52A0FB02029009022202EB40007A
:100BB00001900198A8B100BF0198013801900198F7
:100BC00078B1019801380190019850B1019801382D
:100BD0000190019828B101980138019001980028EE
:100BE000EAD18868C00009D4E06D40F01000E065EB
:100BF000206E40F001002066012000E000208A689D
:100C0000E36D02F0040203F01003D218E26D75D117
:100C100022F481720232E2658A68D2071AD140F268
:100C2000083C4FF600534FF60062C5F2000CCFF6B9
:100C3000FF73CFF6FF725CF803305CF802201A43B2
:100C4000D20707D16268DCF8003023F47C131A4322
:100C5000CCF80020627FE36B43EA4232D4E902C35E
:100C60001A4394F8243042EA0C02012B42EA034270
:100C700007D1D4F828C00023CFF6FE7303EB4C4312
:100C80001A43E36A33B1D4F830C003F4787343EA0B
:100C90000C031A43D1F80CC044F20703CFF6F073EB
:100CA00003EA0C031A43CA600A69636B22F04062CC
:100CB0001A430A618A688B6802F0040203F0080391
:100CC000D21844D194F83820237F520042EA833C62
:100CD000CB6844F2020223EA020242EA0C02CA6032
:100CE00022690B6982B143F480330B61D1F8C0C033
:100CF00043F6FF732CEA03031A430DE042F01001A0
:100D00000120E16502B0B0BD23F480320A61D1F860
:100D1000C02043F6FF739A43C1F8C02094F84030D6
:100D20000A69012B10D140F2FD7322EA030CD4E9C9
:100D30001132D4E913E543EA0C031A4342EA0E02E6
:100D40002A4342F0010201E022F001020A616269D5
:100D50000B6B012A23F00F0202D1236A013B1A43D5
:100D60000A63E16D012262F30101E16502B0B0BDE9
:100D700010B598B0044600201790CDE91500CDE9D4
:100D8000130002A84421FFF7AFFB206840F20011D6
:100D9000C5F20001884231D0B0F1A04F67D14FF4C5
:100DA000004002904FF00050119002A800F054FB58
:100DB000002818BFFFF778FC40F2C401C2F200011E
:100DC0000A6841F24C00C4F20200531C0B6042B9A5
:100DD000016841F400510160016801F40051019182
:100DE0000199016841F002010160006800F0020011
:100DF000019001984FF480502DE000BF4FF4004067
:100E000002904FF00050119002A800F025FB00283E
:100E100018BFFFF749FC40F2C401C2F200010A68A2
:100E200041F24C00C4F20200531C0B6042B901684D
:100E300041F400510160016801F4005101910199F0
:100E4000016841F002010160006800F002000190B9
:100E500001984FF400401390032014900020159047
:100E600040F20040C4F6000013A900F0C1F818B029
:100E700010BD00002DE9F04140F20017C5F2000757
:100E8000D7F80862016804468868400703D494F8DC
:100E90005800012802D10220BDE8F081012084F829
:100EA000580088684FF6C078C007C7F6FF7837D17A
:100EB000886808F17F0210420ED0E06D40F010000B
:100EC000E065206E40F001002066002084F85800A4
:100ED0000120BDE8F08100BF886800EA080040F00A
:100EE0000100886000F066F921680A68D20717D10E
:100EF000054602E00868C00712D18868C00705D11E
:100F0000886800EA080040F00100886000F052F9AB
:100F1000401B21680328EDD30868C007EAD1CCE75D
:100F2000E06D40F60173984306F01F0200F58076ED
:100F30000846B94208BF4FF0A040431AB3FA83F302
:100F40005B09E66500D11AB9E76D27F48017E765FC
:100F5000E66D0027F6044FF0000644BF266E26F02B
:100F6000060626661C260E6084F8587043B9092AC6
:100F700018D8012303FA02F240F221231A4211D0B9
:100F8000C868800104D5E06D012262F30D30E06590
:100F9000886800EA080040F0040088600020BDE88E
:100FA000F08100BFE16D41F48011E165C06880010E
:100FB0005CBF0020BDE8F081E06D012161F30D30E0
:100FC000E0650020BDE8F081B0B5044600F0F2F81D
:100FD000054640F20000C2F200004068611C18BFE4
:100FE000044400BF00F0E6F8401BA042FAD3B0BDB5
:100FF0002DE9F04F82B00D68002D00F0CB8041F25A
:10100000004400F13847C4F6000406224FEAB72630
:10101000A04208BF0522052E38BF4FEAB7220024A0
:1010200001274FF0000E0026009209E00D680136FE
:1010300035FA06F20EF1040E04F1020400F0AA8063
:1010400007FA06FB15EA0B08F0D0D1F804A003223A
:101050000AF0030CACF10105A240012D6FEA020970
:1010600010D88268CD6802EA0902A5402A4382604E
:101070004268CAF3001522EA0B02B5402A434260D7
:1010800006E000BFBCF1030F02D14FF0030C21E0DA
:10109000C2688D6802EA0902A5402A43BCF1020F2A
:1010A000C26017D16FF0030202EA560202440EF04A
:1010B0001C030F25D2F820C005FA03FA0D692CEAAB
:1010C0000A0C05FA03F343EA0C031362D1F804A0F7
:1010D0000AF0030C02680CFA04F302EA09021A434C
:1010E0001AF4403F0260A1D041F26003C4F202034F
:1010F0001A6840F2004942F001021A601A68C4F20C
:10110000010902F001020192019A26F003024FF652
:10111000084A4A44CFF6FF7A52F80AC00EF00C058E
:101120000F23009FAB402CEA030307FA05F52B437E
:1011300042F80A30D9F808C04B684CEA0805DA02D0
:1011400058BF2CEA080540F20C4CC9F80850C4F20C
:10115000010CDCF800209F0242EA080558BF22EA91
:101160000805CCF80050D9F804209D0342EA08078E
:1011700058BF22EA0807C9F80470D9F80020DB0339
:1011800042EA080758BF22EA0807C9F80070012799
:101190004CE700BF02B0BDE8F08F000000690840D6
:1011A00018BF0120704700001823002A08BF282319
:1011B000C150704740F2D420C2F20000006870476E
:1011C00040F2000040F2D421C2F20000C2F200015D
:1011D00040680A68104408607047000080B503202A
:1011E00000F08CF80F2000F009F800281CBF012047
:1011F00080BD00F029F8002080BD000070B540F2ED
:101200000006C2F200067168E1B1044640F20C002B
:10121000C2F200004FF47A720068B2FBF1F1B0FB49
:10122000F1F000F031FE0F2C4FF0010508D838B96D
:101230004FF0FF3021460022002500F033F83460E3
:10124000284670BD012070BD82B041F25800C4F242
:101250000200816841F001018160816801F00101B3
:1012600001910199016841F080510160006800F02E
:1012700080500090009802B000F0E4B8002848BF09
:101280007047C1B200F01F00012202FA00F04EF2D6
:101290000012CEF2000242EAD10121F003010860FF
:1012A0007047000010B54EF60C5CCEF2000CDCF876
:1012B0000030C3F3022E8EF00704042C28BF042450
:1012C000BEF103034FF0FF3E0EFA04F438BF0023D3
:1012D000A14399400EFA03F39A43114300F00F0221
:1012E00000F160430901043A03F5644362440028B5
:1012F00048BF02F10C03197010BD00004EF60C51EE
:10130000CEF200010A684FF6FF031A4060F30A228A
:1013100042F0806040F0FD7008607047B0F5007FDB
:1013200042D0002840F0808047F21400C4F2000050
:1013300050F8141CC26E01F4C06122F48072B1F541
:10134000806FC2662ED150F8141C012262F34A212C
:1013500040F8141C40F20C01C2F20001096832226C
:1013600051434DF68362C4F21B32A1FB0212910C71
:101370000268520511D54A1C0FD0026852050CD5DF
:1013800059B10268520508D5012906D002685205F4
:1013900003D50229A1F10401EAD10068400544BF48
:1013A000032070470020704747F21400C4F2000089
:1013B00050F8141CC26E01F4C06142F48072B1F5A1
:1013C000806FC266EED150F8141C012262F34A21EC
:1013D00040F8141C40F20C01C2F2000109683222EC
:1013E00051434DF68362C4F21B32A1FB0212910CF1
:1013F0000268520511D54A1C0FD0026852050CD55F
:1014000059B10268520508D5012906D00268520573
:1014100003D50229A1F10401EAD10068400544BFC7
:1014200003207047BEE700BF47F21400C4F200007B
:1014300050F8141C022262F34A2140F8141C0020C8
:101440007047000047F20800C4F20000016841F450
:1014500080410160704700002DE9F04182B00446F0
:10146000807841F288060007C4F2020602D4002008
:101470002FE000BF56F8300C10F080580BD156F812
:10148000300C40F0805046F8300C56F8300C00F02C
:1014900080500190019847F20007C4F200073868B5
:1014A00040F480703860FFF785FE05463868C00557
:1014B00000F1D680FFF77EFE401B0228F6D90320FC
:1014C000B8F1000F05D156F8301C21F0805146F8D4
:1014D000301C2168CA0713D18A0719D44A071FD4C0
:1014E0000A0725D48A062BD44A0631D40A0637D4F3
:1014F000CA053DD48A0543D44A0549D457E000BF04
:101500003268636822F003021A4332608A07E5D525
:101510003268A36822F00C021A4332604A07DFD512
:101520003268E36822F030021A4332600A07D9D5E4
:101530003268236922F0C0021A4332608A06D3D58A
:101540003268636922F440621A4332604A06CDD59C
:101550003268A36922F440521A4332600A06C7D5A2
:101560003268E36922F440421A433260CA05C1D5A9
:101570003268236A22F440321A4332608A05BBD5AE
:101580003268636A22F440221A4332604A050ED55B
:101590003268A36A22F440121A43B3F5801F326006
:1015A00005D156F87C2C42F4801246F87C2C0A05B2
:1015B0000ED53268E36A22F440021A43B3F5800F75
:1015C000326005D156F87C2C42F4801246F87C2C0F
:1015D000CA040ED53268236B22F040721A43B3F16D
:1015E000807F326005D156F87C2C42F4801246F898
:1015F0007C2C8A040ED53268636B22F040621A4359
:10160000B3F1006F326005D156F87C2C42F48012A1
:1016100046F87C2C4A040ED53268A36B22F0406257
:101620001A43B3F1006F326005D156F87C2C42F4B6
:10163000801246F87C2C09040ED53168E26B21F04B
:1016400040511143B2F1805F316005D156F87C1CE6
:1016500041F4803146F87C1C02B0BDE8F08100BF47
:10166000B06810F4407010D0216C88420BD0B06884
:10167000B16820F4407041F48031B160B16821F468
:101680008031B160B060C0070CD1B068216C20F42B
:1016900040700843B0600020B8F1000F7FF419AF2C
:1016A00011E700BFFFF786FD054641F2883700BF0E
:1016B000B0688007E9D4FFF77DFD401BB842F7D939
:1016C000FDE600002DE9F04700286DD042F2000A47
:1016D000C4F2020A0446DAF800000D4600F00F00DA
:1016E00088420CD2DAF8000020F00F002843CAF834
:1016F0000000DAF8000000F00F00A84254D1216881
:1017000041F20808C807C4F2020803D1880740F173
:10171000D880BDE0606802283AD0032840D158F84C
:10172000082C920140D5D8F80420D8F8043042F2B1
:101730000046C3F3031302F00302D8F80470013328
:10174000C0F2F406032A04BF43F20066C0F26E162C
:10175000B6FBF3F2D8F80430C7F306277A43C3F395
:101760004163022707EB4303B2FBF3F24BF2004362
:10177000C0F2C4439A4261D9D8F8002012F0F00FA9
:1017800051D089075AD5A168002957D14BE000BF35
:1017900058F8081C89035CBF0120BDE8F08707E00A
:1017A00058F8081C490503D40120BDE8F08700BFA4
:1017B000D8F8001001F00C0104293FD0D8F800102F
:1017C00001F00C01082939D0D8F8001001F00C0103
:1017D0000C2933D1D8F80410D8F8042042F200477D
:1017E000C2F3031201F00301D8F804300132C0F251
:1017F000F407032904BF43F20067C0F26E17B7FB7A
:10180000F2F1D8F80420C3F306235943C2F341622E
:10181000022303EB4202B1FBF2F14BF20042C0F2B1
:10182000C44291420AD9D8F80010082262F3071185
:101830004FF00109C8F8001002E000BF4FF00009A6
:10184000D8F8001021F003010843C8F80000FFF7A2
:10185000B1FC064641F28837D8F80000616800F014
:101860000C00B0EB810F07D0FFF7A4FC801BB8423F
:10187000F2D90320BDE8F0872168880708D4B9F1C0
:10188000000F1ED0D8F8000020F0F00017E000BFD5
:10189000480705D5D8F8000040F4E060C8F800001B
:1018A000080706D5D8F80000072262F30D20C8F813
:1018B0000000D8F80000A26820F0F0001043C8F83B
:1018C0000000DAF8000000F00F00A8421BD9DAF897
:1018D000000020F00F002843CAF80000FFF76AFC60
:1018E000064641F2883700BFDAF8000000F00F002A
:1018F000A84207D0FFF75EFC801BB842F4D9032052
:10190000BDE8F0872168480707D5D8F80000E268ED
:1019100020F4E0601043C8F80000080708D5D8F8A4
:101920000000216920F4605040EAC100C8F80000BE
:10193000D8F8000042F20041C0F2F40100F00C00BF
:10194000042808462DD0D8F8000000F00C00082824
:1019500043F20060C0F26E1023D0D8F8002002F0ED
:101960000C020C2A1CD1D8F80420D8F8043002F05C
:101970000302C3F30313D8F804700133032A08BF2A
:101980000146B1FBF3F0D8F80410C7F30627C1F302
:1019900041610222784302EB4101B0FBF1F000E02B
:1019A0000020D8F8001046F24F62C1F30311C0F6D0
:1019B0000002515C40F20C0201F01F0120FA01F11B
:1019C00040F20000C2F200000068C2F200021160A2
:1019D000BDE8F047FFF712BC2DE9F04182B00028C6
:1019E00000F006810446007841F20006C007C4F208
:1019F000020655D12078800774D42078000700F1C2
:101A000097802078400700F1B7802078800600F1A9
:101A10000781E069002840D0B16801F00C010C2971
:101A200040F05681012800F0E380F068216A00F060
:101A300003028A4240F0DC80626A6FF00F0300F01C
:101A4000F00103EB0212914240F0D280A16A00F44F
:101A5000FE42B2EB012F40F0CB80E16A00F0784209
:101A6000B2EBC16F40F0C480226B0023CFF6E0736D
:101A700003EA025200F4C001A2F50012914240F0C4
:101A8000B780616B4FF07E4202EA016100F0C060F6
:101A900001F17E41884240F0AB800020F1E100BFBF
:101AA000B06800F00C01F06808295BD0032281F0D7
:101AB0000C0122EA00000844B0FA80F0400951D13C
:101AC0006068B0F5803F07D0B0F5A02F40F0D68019
:101AD000306840F480203060306840F480303060FE
:101AE000D7E000BFB068F16800F00C00042869D0AE
:101AF00001F0030180F00C0081F002010844B0FA0B
:101B000080F040095ED1E1683068002900F0CE80A5
:101B100040F480703060FFF74DFB054630684005AB
:101B200000F1EC80FFF746FB401B0228F6D920E1CC
:101B30006169D6F89400002900F08C8040F0010023
:101B4000C6F89400FFF736FB054600BFD6F89400B0
:101B500080073FF556AFFFF72DFB401B0228F5D954
:101B600007E100BF306880037FF544AF606800285C
:101B70007FF440AF3CE000BFB06D10F0805808D15A
:101B8000B06D40F08050B065B06D00F080500190B5
:101B9000019847F20007C4F200073868C0052BD44B
:101BA000386840F480703860FFF704FB054600BFDA
:101BB0003868C00520D4FFF7FDFA401B0228F7D98A
:101BC000D7E000BF3068400501D5E06880B170689B
:101BD000216920F0FE4040EA0160706040F20000A0
:101BE000C2F200000068FFF709FB00283FF405AFD0
:101BF000012002B0BDE8F081A068012808D00528C6
:101C000040F09A80D6F8900040F00400C6F89000AA
:101C1000D6F8900040F00100C6F890009AE000BFAE
:101C2000A169D6F89800002970D040F00100C6F8EC
:101C30009800FFF7BFFA0546D6F8980080073FF5F1
:101C4000E8AEFFF7B7FA401B02284FF00300F3D9C4
:101C500017E100BF20F00100C6F89400FFF7AAFAD0
:101C6000054600BFD6F8940080077FF5CAAEFFF79F
:101C7000A1FA401B0228F5D97BE000BF316800289B
:101C800021F480313160316821F48021316000F02D
:101C90008F80FFF78FFA0546306880033FF5AAAEC4
:101CA000FFF788FA401B6428F6D962E020F48070C0
:101CB0003060FFF77FFA0546306840057FF59DAE3E
:101CC000FFF778FA401B02284FF00300F4D9D8E060
:101CD0003168022821F0807131604FD1FFF76AFA34
:101CE000054600BF3068800140F18E80FFF762FA40
:101CF000401B02284FF00300F4D9C2E0706821694C
:101D000020F0FE4040EA0160706076E620F00100BD
:101D1000C6F89800FFF74EFA054600BFD6F89800BF
:101D200080077FF576AEFFF745FA401B02284FF09B
:101D30000300F3D9A5E000BFD6F89010002821F0E9
:101D40000101C6F89010D6F8901021F00401C6F8F1
:101D500090103DD0FFF72EFA054641F2883700BFBC
:101D6000D6F89000800745D4FFF724FA401BB8420C
:101D7000F6D9032002B0BDE8F08100BFF0684FF64D
:101D8000FF7120F00300F060F068CFF6EE610840CC
:101D9000F060FFF70FFA0446306880017FF57DAEF2
:101DA000FFF708FA001B02284FF00300F4D968E09F
:101DB000FFF700FA054600BF306880037FF51AAED2
:101DC000FFF7F8F9401B64284FF00300F4D958E0FE
:101DD000FFF7F0F9054641F2883700BFD6F89000CA
:101DE000800707D5FFF7E6F9401BB8424FF0030024
:101DF000F4D946E0B8F1000F7FF407AEB06D20F0E3
:101E00008050B06501E600BFF06848F20C01C0F2F6
:101E10009F1104F1200700EA010C8ECF6FF00F0034
:101E2000D4E90C5400EB02100022CFF6E07241EA34
:101E30000C0102EA05520843A2F500124FF07E455C
:101E400040EA032005EA0465104305F17E4540EAB7
:101E5000C7602843F060306840F080703060F06800
:101E600040F08070F060FFF7A5F90446306880010B
:101E70003FF513AEFFF79EF9001B02284FF0030059
:101E8000F4D902B0BDE8F081411E0020B0EB116F23
:101E90001CBF012070474EF21002CEF200025160CA
:101EA0004EF62351CEF20001F0230B700721906013
:101EB00011607047704700007047000070470000D5
:101EC00070470000704700007047000070B590F840
:101ED0003C20012A4FF0020247D080F83D200268E2
:101EE00043F2004C54689368C4F2010C42F6004E71
:101EF0006245C4F2010E01D0724503D14D6824F44D
:101F000070042C434FF68F75CFF6FF550E682C40AA
:101F100042F6FF35C4F201053443AA4254600FDC97
:101F2000B2F1804F16D040F20046C4F20006B24231
:101F300010D040F60006C4F20006B2420AD00EE00D
:101F4000724507D044F20006C4F20106B24201D045
:101F5000624504D1896823F080031943916001210F
:101F6000002280F83D1080F83C20104670BD000033
:101F700070470000002804BF0120704710B50446D8
:101F800090F83D0028B9002084F83C00204600F07D
:101F900023F8022084F83D002068211D03F098FCFE
:101FA000012084F8480084F83E0084F83F0084F85B
:101FB000400084F8410084F8420084F8430084F82B
:101FC000440084F8450084F8460084F8470084F80B
:101FD0003D00002010BD000010B582B0006844F63E
:101FE0000001C4F20101884214D044F20041C4F25D
:101FF0000101884228D141F26000C4F20200016868
:10200000192441F400310160006800F400300190AF
:1020100001980DE041F26000C4F2020001681A2448
:1020200041F480210160006800F480200090009855
:10203000204600210022FFF735F9204602B0BDE816
:102040001040FFF71BB900BF02B010BD90F83D1063
:1020500001291CBF01207047022180F83D10016852
:1020600042F6FF32C868C4F20102914240F001001A
:10207000C8600FDCB1F1804F1ED040F20040C4F2C6
:102080000000814218D040F60000C4F200008142F6
:1020900012D01EE042F60040C4F2010081420BD093
:1020A00044F20000C4F20100814205D043F2004036
:1020B000C4F2010081420CD188680722C0F20102FB
:1020C0000240062A4FF0000008D0B2F5803F08BF5A
:1020D0007047086840F00100086000207047000069
:1020E0000068B0F1804F18BF70472420C4F2000090
:1020F000016944F240220131C0F20F02B2FBF1F15A
:1021000040F27802C2F20002918000210160704723
:10211000F0B590F83C30012B04BF0220F0BD4FEA2F
:10212000B202032A2CD8DFE802F003314F6F00BF60
:102130000368D1E900C5D1F80CE01A6A42F6FF370E
:1021400022F001021A621A4652F8186F1C6AC4F291
:102150000107BB4200F37E80B3F1804F00F08C801A
:1021600040F20047C4F20007BB4200F0858040F611
:102170000007C4F20007BB4200F07E8096E000BF7B
:102180000121002280F83C200846F0BD0368D1E917
:1021900000E6D1E902C11A6A360222F010021A6280
:1021A0001A4652F8184F4FF2FF071D6ABE4324F437
:1021B000734461F30F3646EA040125F0A0040EF0E3
:1021C0000A0744EA07173CE00768D1E900C5D1E9EE
:1021D00002313A6A61F3071522F480723A623A4694
:1021E00052F81C4F3E6A24F0F30445EA040126F439
:1021F00020660CF00A0546EA052611603E62116869
:1022000021F00C01116048E00368D1E900E6D1E952
:1022100002C11A6A360222F480521A621A4652F831
:102220001C4F4FF2FF071D6ABE4324F4734461F351
:102230000F3646EA040125F420440EF00A0744EA6A
:10224000073711601F6211684FEA0C2321F44061C7
:10225000116022E042F60047C4F20107BB420BD0F6
:1022600044F20007C4F20107BB4205D043F2004725
:10227000C4F20107BB4219D126F00306354324F00E
:102280000A070CF00A066EF3071537449D611F62BA
:102290009F6927F00C079F618B68116819431160D3
:1022A0000021002280F83C200846F0BD46F00105E0
:1022B000E5E70000002804BF0120704710B5044680
:1022C00090F83D0028B9002084F83C00204600F03A
:1022D00023F8022084F83D002068211D03F0F8FA5D
:1022E000012084F8480084F83E0084F83F0084F818
:1022F000400084F8410084F8420084F8430084F8E8
:10230000440084F8450084F8460084F8470084F8C7
:102310003D00002010BD000080B586B00068B0F11F
:10232000804F01D006B080BD41F24C00C4F20200E3
:10233000C16841F00101C160C16801F00101019172
:102340000199016841F001010160006801A900F0F4
:102350000100019001984FF400400190022002908A
:102360000020CDE90300012005904FF09040FEF7DA
:102370003FFE1C2000210022FEF794FF1C20FEF7E8
:102380007DFF06B080BD000080B589B10A1F4FEA0D
:10239000B20EBEF1030F41D8DFE80EF002161E2682
:1023A00000F13F0292F800C0082923D13CE000BFB1
:1023B00090F83E2090F84430012A4FF0010208BF07
:1023C000012B1FD0104680BD00F1400292F800C0E2
:1023D00008290FD128E000BF00F1410292F800C0A7
:1023E000082907D120E000BF00F1420292F800C0A6
:1023F000082919D0042914BF00F1470200F1450251
:1024000014E000BF022280F83E2080F844204FEA0A
:10241000B103032B4FF00102D4D852E000F1430284
:1024200092F800C00829E5D100F146021378BCF10A
:10243000010F4FF0010208BF012BC3D1BEF1030F02
:102440000CD8DFE80EF003131B2F00BF022280F828
:102450003F200222082917D12AE000BF022280F87B
:102460004320022208290FD122E000BF022280F877
:1024700040200222082907D11AE000BF022280F87A
:1024800041200222082913D0042914BF80F84720D4
:1024900080F845204FEAB103032B4FF001023FF6CD
:1024A00091AF0EE0022280F8422002220829EBD1EF
:1024B00080F846204FEAB103032B4FF001023FF6AC
:1024C00081AF47F6300C0068C0F6000C5CF823C002
:1024D000C36801F01F0143EA0C03C360036A02FAF8
:1024E00001F123EA01020262026A114342F6FF325D
:1024F000C4F201029042016210DCB0F1804F1FD0A3
:1025000040F20041C4F20001884219D040F60001B7
:10251000C4F20001884213D020E000BF42F600411F
:10252000C4F2010188420BD044F20001C4F201015F
:10253000884205D043F20041C4F2010188420DD126
:1025400081680722C0F20102114006294FF0000203
:102550003FF438AFB1F5803F3FF434AF016800225B
:1025600041F001010160104680BD000010B5016816
:1025700004460869800744BFC8685FEA807061D478
:102580000869400744BFC8685FEA407066D40869BC
:10259000000744BFC8685FEA00706DD40869C006D0
:1025A00044BFC8685FEAC06072D40869C0071CBF36
:1025B000C8685FEAC07079D10869000644BFC8687E
:1025C0005FEA00607AD40869C00544BFC8685FEA62
:1025D000006000F17B800869400644BFC8685FEA7C
:1025E000406000F17B800869800644BFC8685FEAEC
:1025F000806000F17B800869C00244BFC8685FEA60
:10260000C02000F17B800869800244BFC8685FEA8F
:10261000802000F17B800869400244BFC8685FEAFF
:10262000402000F17B800869000246BFC8685FEA6D
:10263000002010BD6FF4000220460A61BDE8104082
:10264000FFF796BC6FF002000861012020778869CF
:1026500080076BD02046FFF743FD6DE06FF004006C
:10266000086102202077886910F4407F68D02046F6
:10267000FFF736FD6AE000BF6FF008000861042034
:102680002077C869800765D02046FFF729FD67E0FD
:102690006FF01000086108202077C86910F4407FAF
:1026A00062D02046FFF71CFD64E000BF6FF0010020
:1026B0000861204600F09AFA21687DE76FF08000FB
:1026C00008612046FFF7F8FB21687CE76FF4807013
:1026D00008612046FFF7EEFB21687CE76FF04000C1
:1026E0000861204600F0A0FA21687CE76FF0200026
:1026F00008612046FFF7E2FB21687CE76FF4801059
:1027000008612046FFF7DEFB21687CE76FF40010CC
:1027100008612046FFF7D4FB21687CE76FF4800056
:1027200008612046FFF7D0FB21687CE7204600F0D7
:1027300025F8204600F058FA2168002020771FE78E
:10274000204600F01BF8204600F04EFA21680020D9
:1027500020771CE7204600F011F8204600F044FAEC
:1027600021680020207719E7204600F007F820466E
:1027700000F03AFA21680020207716E77047000041
:102780002DE9F04190F83C30012B04BF0220BDE858
:10279000F0814FEAB202052A00F28A81DFE812F0E6
:1027A00006005000A400F8004C01900103681A6A6A
:1027B000A3F1804622F001021A621D6A1A465C6883
:1027C00052F818CF8F68A6F59636D1F800E025F0BC
:1027D00002054FEAB626072E45EA07050AD8012763
:1027E000B74017F0E50F1FBFCF6825F00C0527F0A5
:1027F00004073D43072E0BD8012707FA06F616F00B
:10280000E50F1FBF24F44074D1E9056734433C430E
:102810004FF68C76CFF6FE760CEA060747EA0E07EF
:102820005C609F614F6809695F631D629F6947F043
:1028300008079F619F6927F004079F617DE100BF42
:10284000036843F200461A6AC4F2010622F010023D
:102850001A621D6A1A46D3F804C052F8188FB342A0
:102860008E68D1F800E025F0200545EA061505D070
:1028700042F60046C4F20106B34207D1CE686FF0BB
:10288000400725F0C00507EA06163543A3F1804648
:10289000A6F596364FEAB626072E0CD8012707FA7A
:1028A00006F616F0E50F1FBFD1E905672CF440646A
:1028B000374344EA870C48F6FF44CFF6FF6404EA46
:1028C000080444EA0E27C3F804C09F614F680969F1
:1028D0009F631D629F6947F400679F619F6927F4AA
:1028E00080679F6128E100BF036843F200461A6ACF
:1028F000C4F2010622F480721A621D6A1A46D3F8E5
:1029000004C052F81CEFB3428E68D1F8008025F461
:10291000007545EA062505D042F60046C4F20106D8
:10292000B34207D1CE6840F2FF47360225F4406536
:10293000BE433543A3F18046A6F596364FEAB62648
:10294000072E0CD8012707FA06F616F0E50F1FBF71
:10295000D1E905672CF44054374344EA071C4FF68D
:102960008C74CFF6FE740EEA040747EA0807C3F832
:1029700004C0DF614F680969DF631D62DF6947F0EA
:102980000807DF61DF6927F00407DF61D5E000BFDA
:10299000036843F200461A6AC4F2010622F4805228
:1029A0001A621D6A1A46D3F804C052F81C8FB3424B
:1029B0008E68D1F800E025F4005545EA063505D0CB
:1029C00042F60046C4F20106B34207D1CE6844F68F
:1029D000FF77360325F44045BE433543A3F18046D7
:1029E000A6F596364FEAB626072E0CD8012707FA29
:1029F00006F616F0E50F1FBFD1E905672CF4404439
:102A0000374344EA871C48F6FF44CFF6FF6404EAE4
:102A1000080444EA0E27C3F804C0DF614F6809695F
:102A20001F641D62DF6947F40067DF61DF6927F417
:102A30008067DF6180E000BF03681A6AA3F1804706
:102A400022F480321A621A46A7F59637D3F820800E
:102A50005D6852F850EFD1F800C08E684FEAB72792
:102A6000072F09D80124BC4014F0E50F1EBF4C69A4
:102A700025F4803545EA042528F4003444EA064468
:102A80004FF68C76CFF6FE7603360EEA060747EA57
:102A90000C075D601F654F6809699F641C621F6DAC
:102AA00047F008071F651F6D27F004071F6544E006
:102AB0000121002280F83C200846BDE8F08100BFDB
:102AC00003681A6AA3F1804722F480121A621A4638
:102AD000A7F59637D3F820805D6852F850EFD1F80B
:102AE00000C08E684FEAB727072F09D80124BC40E1
:102AF00014F0E50F1EBF4C6925F4802545EA8425B6
:102B000028F4001444EA065448F6FF46CFF6FF6660
:102B100006F540760EEA060747EA0C275D601F655A
:102B20004F680969DF641C621F6D47F400671F6509
:102B30001F6D27F480671F65090213681943116030
:102B40000021002280F83C200846BDE8F08100000A
:102B5000002804BF0120704710B5044690F83D00DE
:102B600028B9002084F83C00204600F023F8022019
:102B700084F83D002068211D02F0AAFE012084F89F
:102B8000480084F83E0084F83F0084F8400084F850
:102B9000410084F8420084F8430084F8440084F83B
:102BA000450084F8460084F8470084F83D00002082
:102BB00010BD000081B0006840F20041C4F2000185
:102BC000884201D001B0704741F25800C4F20200BF
:102BD000016841F002010160006800F0020000900D
:102BE000009801B0704700007047000080B5006891
:102BF00044F20041C4F2010188420FD044F60001C2
:102C0000C4F20101884218BF80BD40F27800C2F2D0
:102C1000000081680131816080BD00BF03F07EF952
:102C2000BDE8804003F0ECB970470000FEE700000B
:102C300040F21841C4F600010A6942F400720A61C8
:102C40000A6942F480720A610A6842F020020A604E
:102C50002022C1F8FC230A6942F020020A6100BF69
:102C600000BF00BF0A6842F020020A600A6842F40E
:102C700080720A600022C1F8FC230B6943F0200334
:102C80000B6100BF00BF00BF0B6843F020030B6067
:102C90000B6843F480730B600B6943F400730B61A2
:102CA0000B6943F480730B610B6843F020030B60E6
:102CB0002123C1F8FC330B6943F020030B6100BFF3
:102CC00000BF00BF0B6843F020030B600B6843F4A8
:102CD00080730B60C1F8FC230A6942F020020A618C
:102CE00000BF00BF00BF0A6842F020020A600A6805
:102CF00042F480720A600A6942F400720A610A6949
:102D000042F480720A610A6842F020020A602222BC
:102D1000C1F8FC230A6942F020020A6100BF00BF2B
:102D200000BF0A6842F020020A600A6842F480721A
:102D30000A6000BF00BF00BF0A6842F400720A6068
:102D40004FF496320B69053A43F400730B610B683C
:102D500043F480730B600B6843F020030B60C1F8F1
:102D6000FC030B6943F020030B6100BF00BF00BFF1
:102D70000B6843F020030B600B6843F480730B6017
:102D800000BF00BF00BF0B6843F400730B600B690A
:102D900043F400730B610B6843F480730B600B68A2
:102DA00043F020030B60C1F8FC030B6943F02003E0
:102DB0000B6100BF00BF00BF0B6843F020030B6036
:102DC0000B6843F480730B6000BF00BF00BF0B684B
:102DD00043F400730B600B6943F400730B610B68E1
:102DE00043F480730B600B6843F020030B60C1F861
:102DF000FC030B6943F020030B6100BF00BF00BF61
:102E00000B6843F020030B600B6843F480730B6086
:102E100000BF00BF00BF0B6843F400730B600B6979
:102E200043F400730B610B6843F480730B600B6811
:102E300043F020030B60C1F8FC030B6943F020034F
:102E40000B6100BF00BF00BF0B6843F020030B60A5
:102E50000B6843F480730B6000BF00BF00BF0B68BA
:102E600043F400730B600B6943F400730B610B6850
:102E700043F480730B600B6843F020030B60C1F8D0
:102E8000FC030B6943F020030B6100BF00BF00BFD0
:102E90000B6843F020030B600B6843F480730B60F6
:102EA00000BF00BF00BF0B6843F400730B607FF4EA
:102EB00049AF70472DE9F0410A78FAB146F26068EF
:102EC00004464D1C002740F23F16C0F6000800BF24
:102ED000A2F12000C1B2490051FA80F008EB0012C3
:102EE000B1B2204600F00CF8EA5D002A08BFBDE848
:102EF000F081103E132F07F10107E9D3BDE8F081FF
:102F00002DE9F04740F21843C4F600031F694FF063
:102F1000200C47F400771F611F694FF0210E47F422
:102F200080771F611F6840F2080947F020071F6083
:102F3000C3F8FCC31F6940F2C80A47F020071F61AD
:102F400000BF00BF00BF1F684FF0220847F02007F6
:102F50001F601F68C2F2000947F480771F60C3F842
:102F6000FC031F69C2F2000A47F020071F6100BF7F
:102F700000BF00BF1F6847F020071F601F6847F4AD
:102F800080771F601F6947F400771F611F6947F44E
:102F900080771F611F6847F020071F60C3F8FCE3BC
:102FA0001C6944F020041C6100BF00BF00BF1C6806
:102FB00044F020041C601C6844F480741C60C3F856
:102FC000FC131C6944F020041C6100BF00BF00BF5B
:102FD0001C6844F020041C601C6844F480741C606D
:102FE000002400BF1D6945F400751D611D6945F48D
:102FF00080751D611D6845F020051D60C3F8FC83C8
:103000001D6945F020051D6100BF00BF00BF1D68A0
:1030100045F020051D601D6845F480751D6000BFEA
:1030200000BF00BF1D6845F400751D60002500BF8E
:1030300032F81460EE40F607564608BF4E46368812
:103040001F6947F400771F611F6847F480771F608E
:103050001F6847F020071F60C3F8FC631E6946F035
:1030600020061E6100BF00BF00BF1E6846F020069C
:103070001E601E6846F480761E6000BF00BF00BF61
:103080001E6846F400761E6032F81460EE40B60703
:10309000564658BF4E4636881F6947F400771F6171
:1030A0001F6847F480771F601F6847F020071F6084
:1030B000C3F8FC631E6946F020061E6100BF00BF16
:1030C00000BF1E6846F020061E601E6846F480762B
:1030D0001E6000BF00BF00BF1E6846F400761E6081
:1030E00032F81460EE407607564658BF4E46368892
:1030F0001F6947F400771F611F6847F480771F60DE
:103100001F6847F020071F60C3F8FC631E6946F084
:1031100020061E6100BF00BF00BF1E6846F02006EB
:103120001E601E6846F480761E6000BF00BF00BFB0
:103130001E6846F400761E6032F81460EE403607D2
:10314000564658BF4E4636881F69043547F4007707
:103150001F611F68102D47F480771F601F6847F0BC
:1031600020071F60C3F8FC631E6946F020061E613D
:1031700000BF00BF00BF1E6846F020061E601E682C
:1031800046F480761E6000BF00BF00BF1E6846F494
:1031900000761E607FF44CAF1D69013045F4007568
:1031A0001D611D69013445F480751D611D68182C71
:1031B00045F020051D60C3F8FCC31D6945F02005DE
:1031C0001D6100BF00BF00BF1D6845F020051D60E8
:1031D0001D6845F480751D60C5B2C3F8FC531D69B8
:1031E00045F020051D6100BF00BF00BF1D6845F010
:1031F00020051D601D6845F480751D601D6945F43E
:1032000000751D611D6945F480751D611D6845F0DF
:1032100020051D60C3F8FCE31D6945F020051D6114
:1032200000BF00BF00BF1D6845F020051D601D6880
:1032300045F480751D60C3F8FC131D6945F0200539
:103240001D6100BF00BF00BF1D6845F020051D6067
:103250001D6845F480751D6008BFBDE8F087C1E6B4
:103260002DE9F04F8BB0002641F24C000596C4F2D8
:103270000200016840F2184541F004010160016854
:10328000C4F6000501F0040106910699016801AC3D
:1032900041F001010160016840F6140901F00101EB
:1032A000069106990168C4F6000941F00201016027
:1032B0000068214600F00200069006984FF448701E
:1032C000019001200290A5F118000127CDE90366C5
:1032D000FDF78EFE4FF48070CDE901074FF090406E
:1032E0002146CDE90366FDF783FE4FF6FF7005F535
:1032F0007A7406904FF0030806A920460A964FF606
:10330000FF7B0797CDE90868FDF772FE4FF6004A8C
:10331000CFF6FF7A55F80A0006A940F4807045F808
:103320000A0028684FF6FF7740F408702860286983
:1033300040F400702861286940F480702861286892
:1033400040F020002860C9F80060286940F02000A3
:10335000286100BF00BF00BF286840F0200028603F
:10336000286840F48070286020460A96CDF818B08E
:10337000CDF82480CDE90766FDF73AFE4FF6104BF5
:10338000CFF6FF7B55F80B0007A940F4807045F895
:103390000B0000BF00BF00BFD5F8F89355F80A0036
:1033A00040F4807045F80A00012081E8410106A937
:1033B00020460A960697FDF71BFE286848F2302142
:1033C00040F40070286040F2CA00C2F20000A0F889
:1033D00000900088884203D100F056FA02E000BF56
:1033E00000F0C6FF2869002640F4007028612869B3
:1033F0004FF6FF7840F48070286128684FF0030989
:1034000040F02000286040F61400C4F6000006607A
:10341000286906A940F02000286100BF00BF00BF56
:10342000286840F020002860286840F480702860F8
:1034300020460A96CDE90686CDE90869FDF7D8FD54
:1034400055F80B0007A940F4807045F80B0000BF49
:1034500000BF00BFD5F8F87355F80A0040F480703B
:1034600045F80A00012081E8410206A920460A9693
:10347000CDF81880FDF7BCFD286840F40070286086
:1034800040F2CA00C2F2000007800BB0BDE8F08F26
:1034900081B0ADF80200BDF8020040F20801C2F2AE
:1034A0000001088001B0704781B0ADF80200BDF89E
:1034B000020040F2C801C2F20001088001B070476A
:1034C00010B58CB040F2CC00C2F200004FF0A04129
:1034D00000244FF40032042380E816000121CDE9D6
:1034E0000A44CDE90744CDE90544CDE90344CDE9DB
:1034F0000144C0E90344C0E905438483016280F8C4
:103500002440C0E90B4480F83840C46380F8404050
:10351000FDF70AFB002818BFFDF7C6F840F2CC0003
:10352000C2F2000009A90994FDF7C4F8002818BFE9
:10353000FDF7BAF840F60000C2F6306001900620B0
:103540007F2102900020049104210390CDE9051011
:1035500040F2CC00C2F2000001A9FDF70BF90028EF
:1035600018BFFDF7A1F80CB010BD0000B0B588B0D1
:1035700040F2381040F20011C2F20000C5F2000122
:1035800000244FF40032042580E816000121CDE923
:103590000644C0E90344C0E905458483016280F81C
:1035A0002440C0E90B4480F83840C46380F84040B0
:1035B000FDF7BAFA002818BFFDF776F848F20000C8
:1035C000C3F6F06000900620CDE901047F20CDE92C
:1035D000030540F23810C2F2000069460594FDF779
:1035E000C9F8002818BFFDF75FF808B0B0BD0000AB
:1035F0002DE9F04387B04FF0000841F24C00CDF8C0
:103600001880C4F20200016840F6000541F0040190
:1036100001600168C4F6000501F0040101910199FF
:103620000168012241F02001016001684FF47F46EA
:1036300001F02001019101990168012741F0010188
:103640000160016801F0010101910199016841F0F7
:1036500002010160016801F0020101910199016814
:1036600041F00801016000684FF47F4100F008005C
:10367000019001982846FDF797FD05F580642046E6
:10368000042101224FF00409FDF78EFD02A880E815
:10369000C00102AE28463146CDF81480FDF7A8FCE3
:1036A0004FF090403146CDE902780497FDF7A0FC39
:1036B0000720CDE90208A5F5806031460497FDF7A3
:1036C00097FC20463146CDE90297CDE90488FDF705
:1036D0008FFC07B0BDE8F08380B540F2A41044F23F
:1036E0000041C2F20000C4F20101002340F21F3287
:1036F00040F2E73C80E80E10C0E904338361FEF736
:1037000039FC002808BF80BDBDE88040FCF7CCBF75
:1037100080B540F2F01044F60001C2F20000C4F29D
:103720000101002341F63F7242F20F7C80E80E1047
:10373000C0E904338361FEF71DFC002808BF80BD8B
:10374000BDE88040FCF7B0BF10B588B040F23C2027
:103750000024C2F200004FF080414FF0FF33069486
:103760004F2280E81600C0E903348461FEF7A2FD11
:10377000002818BFFCF798FF40F23C20C2F200007E
:1037800005A905940794FEF7A1FB002818BFFCF7D4
:103790008BFF002001210190CDE90210049040F23E
:1037A0003C20C2F2000001A90022FEF7B1FC002873
:1037B00018BFFCF779FF08B010BD0000B0B590B09D
:1037C00040F2004540F28820C4F200050024C2F215
:1037D000000040F21F3163220994CDE90644CDE98F
:1037E0000444C0E90051C0E9024204618461FFF76A
:1037F000AFF9002818BFFCF757FF40F28820C2F24B
:10380000000008A908940A94FEF760FB002818BF7E
:10381000FCF74AFF602040F2882401900020C2F2A9
:103820000004CDE90200059001A920460422FEF71C
:10383000A7FF002818BFFCF737FF2068A84201D077
:1038400010B0B0BD41F24C00C4F20200016841F07A
:10385000010101600068002100F001000B900B984D
:1038600080200B9002200C90CDE90D110F900BA938
:103870004FF09040FDF7BCFB10B0B0BDFEE700007C
:10388000FEE700007047000040F21840C4F6000058
:103890000169002241F40071016101694FF0030CDC
:1038A00041F480710161016841F020010160C0F8BC
:1038B000FC23016941F02001016100BF00BF00BF8E
:1038C000016841F020010160016841F480710160EC
:1038D0000121C0F8FC13036943F02003036100BF1A
:1038E00000BF00BF036843F020030360036843F494
:1038F00080730360036943F400730361036943F455
:1039000080730361036843F020030360C0F8FC1375
:10391000036943F02003036100BF00BF00BF0368D9
:1039200043F020030360036843F480730360C0F82E
:10393000FC23026942F02002026100BF00BF00BF09
:10394000026842F020020260026842F48072026063
:10395000026942F400720261026942F480720261FB
:10396000026842F0200202601022C0F8FC230269C3
:1039700042F02002026100BF00BF00BF026842F0B7
:1039800020020260026842F48072026041F290728A
:10399000C0F8FC23026942F02002026100BF00BFB0
:1039A00000BF026842F020020260026842F48072A6
:1039B0000260026942F400720261026942F480729C
:1039C0000261026842F0200202606022C0F8FC231B
:1039D000026942F02002026100BF00BF00BF02681E
:1039E00042F020020260026842F4807202604FF4EA
:1039F0001C52C0F8FC23026942F02002026100BFA1
:103A000000BF00BF026842F020020260026842F478
:103A100080720260026942F400720261026942F43B
:103A200080720261026842F0200202606122C0F8E6
:103A3000FC23026942F02002026100BF00BF00BF08
:103A4000026842F020020260026842F48072026062
:103A5000C0F8FC13016941F02001016100BF00BF03
:103A600000BF016841F020010160016841F48071EC
:103A70000160016941F400710161016941F48071E3
:103A80000161016841F0200101604621C0F8FC138A
:103A9000016941F02001016100BF00BF00BF016862
:103AA00041F020010160016841F480710160022150
:103AB000C0F8FC13026942F02002026100BF00BF9F
:103AC00000BF026842F020020260026842F4807285
:103AD0000260026942F400720261026942F480727B
:103AE0000261026842F0200202601322C0F8FC2347
:103AF000026942F02002026100BF00BF00BF0268FD
:103B000042F020020260026842F48072026048F2D1
:103B10001002C0F8FC23026942F02002026100BFDB
:103B200000BF00BF026842F020020260026842F457
:103B300080720260026942F400720261026942F41A
:103B400080720261026842F0200202601222C0F814
:103B5000FC23026942F02002026100BF00BF00BFE7
:103B6000026842F020020260026842F48072026041
:103B700048F2FE02C0F8FC23026942F02002026112
:103B800000BF00BF00BF026842F02002026002686E
:103B900042F480720260026942F4007202610269BA
:103BA00042F480720261026842F020020260C0F8B2
:103BB000FC13016941F02001016100BF00BF00BF9B
:103BC000016841F020010160016841F480710160E9
:103BD0004FF4A061C0F8FC13016941F020010161BC
:103BE00000BF00BF00BF016841F020010160016813
:103BF00041F480710160016941F400710161016962
:103C000041F480710161016841F020010160C0F858
:103C1000FCC3026942F02002026100BF00BF00BF86
:103C2000026842F020020260026842F48072026080
:103C300041F23002C0F8FC23026942F02002026126
:103C400000BF00BF00BF026842F0200202600268AD
:103C500042F480720260026942F4007202610269F9
:103C600042F480720261026842F020020260302257
:103C7000C0F8FC23026942F02002026100BF00BFCD
:103C800000BF026842F020020260026842F48072C3
:103C9000026040F20332C0F8FC23036943F02003C2
:103CA000036100BF00BF00BF036843F0200303604F
:103CB000036843F480730360036943F40073036192
:103CC000036943F480730361036843F020030360D6
:103CD0003123C0F8FC33036943F02003036100BFC4
:103CE00000BF00BF036843F020030360036843F490
:103CF00080730360C0F8FC23036943F02003036171
:103D000000BF00BF00BF036843F0200303600368E7
:103D100043F480730360036943F400730361036930
:103D200043F480730361036843F02003036032238C
:103D3000C0F8FC33036943F02003036100BF00BFF8
:103D400000BF036843F020030360036843F48073FB
:103D50000360C0F8FC23036943F02003036100BF44
:103D600000BF00BF036843F020030360036843F40F
:103D700080730360036943F400730361036943F4D0
:103D800080730361036843F0200303603323C0F8AA
:103D9000FC33036943F02003036100BF00BF00BF91
:103DA000036843F020030360036843F480730360F7
:103DB0004FF44073C0F8FC33016941F02001016108
:103DC00000BF00BF00BF016841F020010160016831
:103DD00041F480710160016941F400710161016980
:103DE00041F480710161016841F0200101603421DA
:103DF000C0F8FC13016941F02001016100BF00BF60
:103E000000BF016841F020010160016841F4807148
:103E10000160C0F8FCC3016941F02001016100BFED
:103E200000BF00BF016841F020010160016841F45A
:103E300080710160016941F400710161016941F41F
:103E400080710161016841F0200101603521C0F8F5
:103E5000FC13016941F02001016100BF00BF00BFF8
:103E6000016841F020010160016841F48071016046
:103E7000C0F8FC23016941F02001016100BF00BFCF
:103E800000BF016841F020010160016841F48071C8
:103E90000160016941F400710161016941F48071BF
:103EA0000161016841F0200101603621C0F8FC1376
:103EB000016941F02001016100BF00BF00BF01683E
:103EC00041F020010160016841F48071016014211A
:103ED000C0F8FC13016941F02001016100BF00BF7F
:103EE00000BF016841F020010160016841F4807168
:103EF0000160016941F400710161016941F480715F
:103F00000161016841F0200101603721C0F8FC1314
:103F1000016941F02001016100BF00BF00BF0168DD
:103F200041F020010160016841F480710160C0F836
:103F3000FC23016941F02001016100BF00BF00BF07
:103F4000016841F020010160016841F48071016065
:103F5000016941F400710161016941F480710161FD
:103F6000016841F0200101603821C0F8FC130169AB
:103F700041F02001016100BF00BF00BF016841F0B6
:103F800020010160016841F480710160C0F8FC23E8
:103F9000016941F02001016100BF00BF00BF01685D
:103FA00041F020010160016841F480710160016904
:103FB00041F400710161016941F48071016101689E
:103FC00041F0200101603921C0F8FC13016941F082
:103FD0002001016100BF00BF00BF016841F0200166
:103FE0000160016841F480710160C0F8FC2301693F
:103FF00041F02001016100BF00BF00BF016841F036
:1040000020010160016841F480710160016941F49F
:1040100000710161016941F480710161016841F041
:10402000200101603A21C0F8FC13016941F0200130
:10403000016100BF00BF00BF016841F020010160C5
:10404000016841F480710160C0F8FC33016941F0FE
:104050002001016100BF00BF00BF016841F02001E5
:104060000160016841F480710160016941F40071EF
:104070000161016941F480710161016841F0200131
:1040800001603B21C0F8FC13016941F0200101618E
:1040900000BF00BF00BF016841F02001016001685E
:1040A00041F480710160C0F8FCC3016941F0200156
:1040B000016100BF00BF00BF016841F02001016045
:1040C000016841F480710160016941F4007101618E
:1040D000016941F480710161016841F020010160D2
:1040E0003C21C0F8FC13016941F02001016100BFCF
:1040F00000BF00BF016841F020010160016841F488
:1041000080710160C0F8FC23016941F02001016168
:1041100000BF00BF00BF016841F0200101600168DD
:1041200041F480710160016941F40071016101692C
:1041300041F480710161016841F0200101603D217D
:10414000C0F8FC13016941F02001016100BF00BF0C
:1041500000BF016841F020010160016841F48071F5
:1041600001604FF4A051C0F8FC13016941F0200137
:10417000016100BF00BF00BF016841F02001016084
:10418000016841F480710160016941F400710161CD
:10419000016941F480710161016841F02001016011
:1041A0009221C0F8FC13016941F02001016100BFB8
:1041B00000BF00BF016841F020010160016841F4C7
:1041C000807101604FF40071C0F8FC13016941F087
:1041D0002001016100BF00BF00BF016841F0200164
:1041E0000160016841F480710160016941F400716E
:1041F0000161016941F480710161016841F02001B0
:1042000001609321C0F8FC13016941F020010161B4
:1042100000BF00BF00BF016841F0200101600168DC
:1042200041F480710160C0F8FC23016941F0200174
:10423000016100BF00BF00BF016841F020010160C3
:10424000016841F480710160016941F4007101610C
:10425000016941F480710161016841F02001016050
:104260009021C0F8FC13016941F02001016100BFF9
:1042700000BF00BF016841F020010160016841F406
:104280008071016040F60D01C0F8FC13016941F036
:104290002001016100BF00BF00BF016841F02001A3
:1042A0000160016841F480710160016941F40071AD
:1042B0000161016941F480710161016841F02001EF
:1042C0000160C0F8FCC3016941F02001016100BF39
:1042D00000BF00BF016841F020010160016841F4A6
:1042E0008071016041F21801C0F8FC13016941F0CE
:1042F0002001016100BF00BF00BF016841F0200143
:104300000160016841F480710160016941F400714C
:104310000161016941F480710161016841F020018E
:1043200001600721C0F8FC13016941F0200101611F
:1043300000BF00BF00BF016841F0200101600168BB
:1043400041F48071016040F27311C0F8FC130169FF
:1043500041F02001016100BF00BF00BF016841F0D2
:1043600020010160016841F4807101607047000024
:104370002DE9F04F81B040F21844C4F600042069E2
:104380004FF0120940F4007020612069002540F4CC
:10439000807020612068112640F020002060E3201A
:1043A000C4F8FC0320694FF0130B40F0200020619B
:1043B00000BF00BF00BF2068102740F02000206031
:1043C00020684FF0070840F48070206043F2080036
:1043D000C4F8FC03206940F02000206100BF00BF4A
:1043E00000BF206840F020002060206840F480700A
:1043F0002060206940F400702061206940F48070E2
:104400002061206840F020002060E720C4F8FC0311
:10441000206940F02000206100BF00BF00BF20687D
:1044200040F020002060206840F480702060C4F8D4
:10443000FC93206940F02000206100BF00BF00BF56
:10444000206840F020002060206840F480702060E8
:10445000206940F400702061206940F48070206180
:10446000206840F020002060EF20C4F8FC032069A1
:1044700040F02000206100BF00BF00BF206840F076
:1044800020002060206840F48070206041F23120DC
:10449000C4F8FC03206940F02000206100BF00BF89
:1044A00000BF206840F020002060206840F4807049
:1044B0002060206940F400702061206940F4807021
:1044C0002061206840F0200020600120C4F8FC0337
:1044D000206940F02000206100BF00BF00BF2068BD
:1044E00040F020002060206840F480702060C4F814
:1044F000FC53206940F02000206100BF00BF00BFD6
:10450000206840F020002060206840F48070206027
:10451000206940F400702061206940F480702061BF
:10452000206840F0200020600220C4F8FC032069CD
:1045300040F02000206100BF00BF00BF206840F0B5
:1045400020002060206840F4807020604FF4E0601C
:10455000C4F8FC03206940F02000206100BF00BFC8
:1045600000BF206840F020002060206840F4807088
:104570002060206940F400702061206940F4807060
:104580002061206840F0200020600320C4F8FC0374
:10459000206940F02000206100BF00BF00BF2068FC
:1045A00040F020002060206840F48070206041F2DC
:1045B0003000C4F8FC03206940F02000206100BFF7
:1045C00000BF00BF206840F020002060206840F459
:1045D00080702060206940F400702061206940F400
:1045E00080702061206840F0200020600420C4F822
:1045F000FC03206940F02000206100BF00BF00BF25
:10460000206840F020002060206840F48070206026
:10461000C4F8FC53206940F02000206100BF00BFB7
:1046200000BF206840F020002060206840F48070C7
:104630002060206940F400702061206940F480709F
:104640002061206840F0200020600820C4F8FC03AE
:10465000206940F02000206100BF00BF00BF20683B
:1046600040F020002060206840F48070206040F21C
:104670000720C4F8FC03206940F02000206100BF3F
:1046800000BF00BF206840F020002060206840F498
:1046900080702060206940F400702061206940F43F
:1046A00080702061206840F0200020600920C4F85C
:1046B000FC03206940F02000206100BF00BF00BF64
:1046C000206840F020002060206840F48070206066
:1046D000C4F8FC53206940F02000206100BF00BFF7
:1046E00000BF206840F020002060206840F4807007
:1046F0002060206940F400702061206940F48070DF
:104700002061206840F0200020600A20C4F8FC03EB
:10471000206940F02000206100BF00BF00BF20687A
:1047200040F020002060206840F480702060C4F8D1
:10473000FC53206940F02000206100BF00BF00BF93
:10474000206840F020002060206840F480702060E5
:10475000206940F400702061206940F4807020617D
:10476000206840F0200020600C20C4F8FC03206981
:1047700040F02000206100BF00BF00BF206840F073
:1047800020002060206840F480702060C4F8FC5352
:10479000206940F02000206100BF00BF00BF2068FA
:1047A00040F020002060206840F480702060206984
:1047B00040F400702061206940F48070206120681E
:1047C00040F0200020600D20C4F8FC03206940F078
:1047D0002000206100BF00BF00BF206840F0200023
:1047E0002060206840F480702060C4F8FC53206989
:1047F00040F02000206100BF00BF00BF206840F0F3
:1048000020002060206840F480702060206940F41F
:1048100000702061206940F480702061206840F0C1
:10482000200020600F20C4F8FC03206940F0200025
:10483000206100BF00BF00BF206840F02000206062
:10484000206840F480702060C4F8FC53206940F078
:104850002000206100BF00BF00BF206840F02000A2
:104860002060206840F480702060206940F400706F
:104870002061206940F480702061206840F02000B1
:1048800020601020C4F8FC03206940F02000206163
:1048900000BF00BF00BF206840F0200020602068FB
:1048A00040F480702060C4F8FC53206940F0200080
:1048B000206100BF00BF00BF206840F020002060E2
:1048C000206840F480702060206940F4007020610E
:1048D000206940F480702061206840F02000206052
:1048E000C4F8FC63206940F02000206100BF00BFD5
:1048F00000BF206840F020002060206840F48070F5
:1049000020600720C4F8FC03206940F020002061EB
:1049100000BF00BF00BF206840F02000206020687A
:1049200040F480702060206940F4007020612069AC
:1049300040F480702061206840F020002060C4F8BE
:10494000FC93206940F02000206100BF00BF00BF41
:10495000206840F020002060206840F480702060D3
:10496000C4F8FC53206940F02000206100BF00BF64
:1049700000BF206840F020002060206840F4807074
:104980002060206940F400702061206940F480704C
:104990002061206840F020002060C4F8FCB320694A
:1049A00040F02000206100BF00BF00BF206840F041
:1049B00020002060206840F480702060C4F8FC5320
:1049C000206940F02000206100BF00BF00BF2068C8
:1049D00040F020002060206840F480702060C820F3
:1049E000FCF7F2FA20694FF0320A40F400702061BF
:1049F000206940F480702061206840F02000206031
:104A0000C4F8FC732069102740F02000206100BF2B
:104A100000BF00BF206840F020002060206840F404
:104A20008070206041F29060C4F8FC03206940F07F
:104A30002000206100BF00BF00BF206840F02000C0
:104A40002060206840F480702060206940F400708D
:104A50002061206940F480702061206840F02000CF
:104A60002060C4F8FC63206940F02000206100BF92
:104A700000BF00BF206840F020002060206840F4A4
:104A80008070206040F22720C4F8FC03206940F0C9
:104A90002000206100BF00BF00BF206840F0200060
:104AA0002060206840F4807020603220FCF78CFA8F
:104AB000206940F400702061206940F4807020611A
:104AC000206840F020002060C4F8FC93206940F08A
:104AD0002000206100BF00BF00BF206840F0200020
:104AE0002060206840F4807020601D20C4F8FC0322
:104AF000206940F02000206100BF00BF00BF206897
:104B000040F020002060206840F480702060322057
:104B1000FCF75AFA206940F400702061206940F4E3
:104B200080702061206840F020002060C4F8FCB351
:104B3000206940F02000206100BF00BF00BF206856
:104B400040F020002060206840F4807020604FF426
:104B50000060C4F8FC03206940F02000206100BF21
:104B600000BF00BF206840F020002060206840F4B3
:104B700080702060206940F400702061206940F45A
:104B800080702061206840F0200020602920C4F857
:104B9000FC03206940F02000206100BF00BF00BF7F
:104BA000206840F020002060206840F48070206081
:104BB0001420C4F8FC03206940F02000206100BFED
:104BC00000BF00BF206840F020002060206840F453
:104BD00080702060206940F400702061206940F4FA
:104BE00080702061206840F0200020602B20C4F8F5
:104BF000FC03206940F02000206100BF00BF00BF1F
:104C0000206840F020002060206840F48070206020
:104C10000B20C4F8FC03206940F02000206100BF95
:104C200000BF00BF206840F020002060206840F4F2
:104C3000807020603220FCF7C7F92069032140F41E
:104C4000007020612069072240F480702061206894
:104C500040F0200020602020C4F8FC03206940F0D0
:104C60002000206100BF00BF00BF206840F020008E
:104C70002060206840F480702060C4F8FC532069F4
:104C800040F02000206100BF00BF00BF206840F05E
:104C900020002060206840F480702060206940F48B
:104CA00000702061206940F480702061206840F02D
:104CB000200020602120C4F8FC03206940F020007F
:104CC000206100BF00BF00BF206840F020002060CE
:104CD000206840F480702060C4F8FC53206940F0E4
:104CE0002000206100BF00BF00BF206840F020000E
:104CF0002060206840F480702060206940F40070DB
:104D00002061206940F480702061206840F020001C
:104D100020603020C4F8FC03206940F020002061AE
:104D200000BF00BF00BF206840F020002060206866
:104D300040F480702060C4F8FC83206940F02000BB
:104D4000206100BF00BF00BF206840F0200020604D
:104D5000206840F480702060206940F40070206179
:104D6000206940F480702061206840F020002060BD
:104D70003120C4F8FC03206940F02000206100BF0E
:104D800000BF00BF206840F020002060206840F491
:104D90008070206040F20770C4F8FC03206940F086
:104DA0002000206100BF00BF00BF206840F020004D
:104DB0002060206840F480702060206940F400701A
:104DC0002061206940F480702061206840F020005C
:104DD0002060C4F8FCA3206940F02000206100BFDF
:104DE00000BF00BF206840F020002060206840F431
:104DF000807020600620C4F8FC03206940F0200089
:104E0000206100BF00BF00BF206840F0200020608C
:104E1000206840F480702060206940F400702061B8
:104E2000206940F480702061206840F020002060FC
:104E30003520C4F8FC03206940F02000206100BF49
:104E400000BF00BF206840F020002060206840F4D0
:104E50008070206040F20470C4F8FC03206940F0C8
:104E60002000206100BF00BF00BF206840F020008C
:104E70002060206840F480702060206940F4007059
:104E80002061206940F480702061206840F020009B
:104E900020603620C4F8FC03206940F02000206127
:104EA00000BF00BF00BF206840F0200020602068E5
:104EB00040F48070206041F60470C4F8FC0320695F
:104EC00040F02000206100BF00BF00BF206840F01C
:104ED00020002060206840F480702060206940F449
:104EE00000702061206940F480702061206840F0EB
:104EF000200020603720C4F8FC03206940F0200027
:104F0000206100BF00BF00BF206840F0200020608B
:104F1000206840F4807020600420C4F8FC032069FD
:104F200040F02000206100BF00BF00BF206840F0BB
:104F300020002060206840F480702060206940F4E8
:104F400000702061206940F480702061206840F08A
:104F5000200020603820C4F8FC03206940F02000C5
:104F6000206100BF00BF00BF206840F0200020602B
:104F7000206840F480702060C4F8FC53206940F041
:104F80002000206100BF00BF00BF206840F020006B
:104F90002060206840F480702060206940F4007038
:104FA0002061206940F480702061206840F020007A
:104FB00020603920C4F8FC03206940F02000206103
:104FC00000BF00BF00BF206840F0200020602068C4
:104FD00040F48070206040F20670C4F8FC03206941
:104FE00040F02000206100BF00BF00BF206840F0FB
:104FF00020002060206840F480702060206940F428
:1050000000702061206940F480702061206840F0C9
:10501000200020603C20C4F8FC03206940F0200000
:10502000206100BF00BF00BF206840F0200020606A
:10503000206840F48070206040F20170C4F8FC03E6
:10504000206940F02000206100BF00BF00BF206841
:1050500040F020002060206840F4807020602069CB
:1050600040F400702061206940F480702061206865
:1050700040F0200020603D20C4F8FC03206940F08F
:105080002000206100BF00BF00BF206840F020006A
:105090002060206840F4807020600F20C4F8FC037A
:1050A000206940F02000206100BF00BF00BF2068E1
:1050B00040F020002060206840F48070206020696B
:1050C00040F400702061206940F480702061206805
:1050D00040F0200020605020C4F8FC03206940F01C
:1050E0002000206100BF00BF00BF206840F020000A
:1050F0002060206840F480702060C4F8FC53206970
:1051000040F02000206100BF00BF00BF206840F0D9
:1051100020002060206840F480702060206940F406
:1051200000702061206940F480702061206840F0A8
:10513000200020605120C4F8FC03206940F02000CA
:10514000206100BF00BF00BF206840F02000206049
:10515000206840F480702060EF20C4F8FC032069D0
:1051600040F02000206100BF00BF00BF206840F079
:1051700020002060206840F480702060206940F4A6
:1051800000702061206940F480702061206840F048
:10519000200020605220C4F8FC03206940F0200069
:1051A000206100BF00BF00BF206840F020002060E9
:1051B000206840F480702060C4F8FC53206940F0FF
:1051C0002000206100BF00BF00BF206840F0200029
:1051D0002060206840F480702060206940F40070F6
:1051E0002061206940F480702061206840F0200038
:1051F00020605320C4F8FC03206940F020002061A7
:1052000000BF00BF00BF206840F020002060206881
:1052100040F48070206040F23F10C4F8FC03206925
:1052200040F02000206100BF00BF00BF206840F0B8
:1052300020002060206840F480702060206940F4E5
:1052400000702061206940F480702061206840F087
:10525000200020606020C4F8FC03206940F020009A
:10526000206100BF00BF00BF206840F02000206028
:10527000206840F4807020604FF41C50C4F8FC0398
:10528000206940F02000206100BF00BF00BF2068FF
:1052900040F020002060206840F480702060206989
:1052A00040F400702061206940F480702061206823
:1052B00040F0200020606120C4F8FC03206940F029
:1052C0002000206100BF00BF00BF206840F0200028
:1052D0002060206840F4807020600120C4F8FC0346
:1052E000206940F02000206100BF00BF00BF20689F
:1052F00040F020002060206840F480702060206929
:1053000040F400702061206940F4807020612068C2
:1053100040F0200020606A20C4F8FC03206940F0BF
:105320002000206100BF00BF00BF206840F02000C7
:105330002060206840F480702060C4F8FC5320692D
:1053400040F02000206100BF00BF00BF206840F097
:1053500020002060206840F480702060206940F4C4
:1053600000702061206940F480702061206840F066
:10537000200020608020C4F8FC03206940F0200059
:10538000206100BF00BF00BF206840F02000206007
:10539000206840F480702060C4F8FC53206940F01D
:1053A0002000206100BF00BF00BF206840F0200047
:1053B0002060206840F480702060206940F4007014
:1053C0002061206940F480702061206840F0200056
:1053D00020608120C4F8FC03206940F02000206197
:1053E00000BF00BF00BF206840F0200020602068A0
:1053F00040F480702060C4F8FC53206940F0200025
:10540000206100BF00BF00BF206840F02000206086
:10541000206840F480702060206940F400702061B2
:10542000206940F480702061206840F020002060F6
:105430008220C4F8FC03206940F02000206100BFF6
:1054400000BF00BF206840F020002060206840F4CA
:1054500080702060C4F8FC53206940F02000206177
:1054600000BF00BF00BF206840F02000206020681F
:1054700040F480702060206940F400702061206951
:1054800040F480702061206840F02000206083207C
:10549000C4F8FC03206940F02000206100BF00BF79
:1054A00000BF206840F020002060206840F4807039
:1054B0002060C4F8FC53206940F02000206100BF48
:1054C00000BF00BF206840F020002060206840F44A
:1054D00080702060206940F400702061206940F4F1
:1054E00080702061206840F0200020608420C4F893
:1054F000FC03206940F02000206100BF00BF00BF16
:10550000206840F020002060206840F48070206017
:10551000C4F8FC53206940F02000206100BF00BFA8
:1055200000BF206840F020002060206840F48070B8
:105530002060206940F400702061206940F4807090
:105540002061206840F0200020608520C4F8FC0322
:10555000206940F02000206100BF00BF00BF20682C
:1055600040F020002060206840F480702060C4F883
:10557000FC53206940F02000206100BF00BF00BF45
:10558000206840F020002060206840F48070206097
:10559000206940F400702061206940F4807020612F
:1055A000206840F0200020609020C4F8FC032069AF
:1055B00040F02000206100BF00BF00BF206840F025
:1055C00020002060206840F480702060C4F8FC73E4
:1055D000206940F02000206100BF00BF00BF2068AC
:1055E00040F020002060206840F480702060206936
:1055F00040F400702061206940F4807020612068D0
:1056000040F0200020609220C4F8FC03206940F0A4
:105610002000206100BF00BF00BF206840F02000D4
:105620002060206840F480702060C4F8FC5320693A
:1056300040F02000206100BF00BF00BF206840F0A4
:1056400020002060206840F480702060206940F4D1
:1056500000702061206940F480702061206840F073
:10566000200020609320C4F8FC03206940F0200053
:10567000206100BF00BF00BF206840F02000206014
:10568000206840F480702060C4F8FC13206940F06A
:105690002000206100BF00BF00BF206840F0200054
:1056A0002060206840F480702060206940F4007021
:1056B0002061206940F480702061206840F0200063
:1056C00020609520C4F8FC03206940F02000206190
:1056D00000BF00BF00BF206840F0200020602068AD
:1056E00040F4807020604FF48870C4F8FC03206997
:1056F00040F02000206100BF00BF00BF206840F0E4
:1057000020002060206840F480702060206940F410
:1057100000702061206940F480702061206840F0B2
:10572000200020609720C4F8FC03206940F020008E
:10573000206100BF00BF00BF206840F02000206053
:10574000206840F480702060C4F8FC53206940F069
:105750002000206100BF00BF00BF206840F0200093
:105760002060206840F480702060206940F4007060
:105770002061206940F480702061206840F02000A2
:1057800020609820C4F8FC03206940F020002061CC
:1057900000BF00BF00BF206840F0200020602068EC
:1057A00040F480702060C4F8FC53206940F0200071
:1057B000206100BF00BF00BF206840F020002060D3
:1057C000206840F480702060206940F400702061FF
:1057D000206940F480702061206840F02000206043
:1057E000C4F8FC13206940F02000206100BF00BF16
:1057F00000BF206840F020002060206840F48070E6
:10580000206041F21800C4F8FC03206940F0200039
:10581000206100BF00BF00BF206840F02000206072
:10582000206840F480702060206940F4007020619E
:10583000206940F480702061206840F020002060E2
:10584000C4F8FC23206940F02000206100BF00BFA5
:1058500000BF206840F020002060206840F4807085
:10586000206040F27310C4F8FC03206940F020006F
:10587000206100BF00BF00BF206840F02000206012
:10588000206840F48070206001B0BDE8F08F000017
:1058900070470000FBF794BC4EF68850CEF2000033
:1058A000016841F4700101607047000040F2F0109F
:1058B000C2F20000FCF75ABE40F2A410C2F200008F
:1058C000FCF754BE40F23C20C2F20000FCF74EBE92
:1058D00080B540F2FF7C0268C4F2000C604521DD17
:1058E00040F60003C4F20003984224D043F2004380
:1058F000C4F2010398421ED042F60043C4F20103F1
:10590000984218D043F2FF33C4F2010398421CDCE2
:10591000604529DCB0F1804F3CD040F20043C4F236
:10592000000335E0B0F1804F05D040F20043C4F2EF
:1059300000039842E6D14B6822F070021A4343F20A
:10594000FF33C4F201039842E2DD44F2FF33C4F2B4
:105950000103984212DC43F20043C4F2010398426F
:1059600018D044F2000311E040F60003C4F2000333
:1059700098420FD042F6004308E000BF44F600030F
:10598000C4F20103984205D044F20043C4F201037B
:10599000984203D1CB6822F440721A434B6922F03B
:1059A000800E8A6843EA0E03D1F800C00360C26229
:1059B000A0F18042A2F596324FEAB222072AC0F83F
:1059C00028C007D8012303FA02F212F0E50F1CBF2A
:1059D000096901630121416180BD0000FEE700000B
:1059E0002DE9F04381B040F2CC04C2F2000420461D
:1059F000FBF740FA2046FBF793F800EE100AB8EEEA
:105A0000400A10EE100A00F097FD9FED1D0B58ECB8
:105A1000105B2A46434600F091FC9FED1B0B56ECB1
:105A2000107B3A46334600F089FC00F055FC40F20A
:105A3000780940F23814C2F20009C2F20004C9F831
:105A400010002046FBF716FA2046FBF769F800EE37
:105A5000100AB8EE400A10EE100A00F06DFD2A465A
:105A6000434600F06BFC3A46334600F067FC00F01A
:105A700033FCC9F8140001B0BDE8F08300BF00BFDB
:105A80006666666666660A40000000000000303FF9
:105A90002DE9F04381B040F27804C2F2000421788D
:105AA000A078884204D00020FDF7C2F82078A070CA
:105AB00040F61408C4F60008D8F80090032800F255
:105AC0003B81DFE810F005003D015B00A50000BF51
:105AD00047F6D800C0F6000090E8CE00254645F80D
